:100000000C9452000C946F000C946F000C946F00D1
:100010000C946F000C946F000C946F000C946F00A4
:100020000C946F000C946F000C946F000C946F0094
:100030000C946F000C946F000C946F000C946F0084
:100040000C947A010C946F000C946F000C946F0068
:100050000C946F000C946F000C946F000C946F0064
:100060000C946F000C946F00000000002500280025
:100070002B0000000000240027002A0004040404D0
:100080000404040402020202020203030303030342
:10009000010204081020408001020408102001021F
:1000A0000408102011241FBECFEFD8E0DEBFCDBF63
:1000B00011E0A0E0B1E0EEEEF6E002C005900D9296
:1000C000A834B107D9F721E0A8E4B1E001C01D923E
:1000D000AB35B207E1F70E94C4010C9475030C9490
:1000E0000000CF93DF9390E0FC01E057FF4F249195
:1000F00084589F4FFC0184918823D1F090E0880FB1
:10010000991FFC01EE58FF4FA591B491FC01E859ED
:10011000FF4FC591D49161110EC09FB7F8948C9197
:10012000E22FE0958E238C932881E223E8839FBF02
:10013000DF91CF9108958FB7F894EC91E22BEC9377
:100140008FBFF6CF8E50806480937C0080917A00C0
:10015000806480937A0080917A0086FDFCCF809144
:1001600078009091790008953FB7F89480914D01FF
:1001700090914E01A0914F01B091500126B5A89BDE
:1001800005C02F3F19F00196A11DB11D3FBFBA2F29
:10019000A92F982F8827BC01CD01620F711D811DE9
:1001A000911D42E0660F771F881F991F4A95D1F76E
:1001B00008958F929F92AF92BF92CF92DF92EF926B
:1001C000FF924B015C010E94B4006B017C010E9414
:1001D000B4006C197D098E099F09683E7340810542
:1001E0009105A8F321E0821A9108A108B10888EED0
:1001F000C80E83E0D81EE11CF11C81149104A104F7
:10020000B10429F7FF90EF90DF90CF90BF90AF90AF
:100210009F908F90089583E10E94A20070E060E0BB
:100220004EE250E09B016B30710531F06F5F7F4F04
:100230008417950708F05BC050934B0140934A0127
:100240003093490120934801809100019091010170
:100250008217930709F44AC03093010120930001EB
:10026000220F331FF901E25EFE4F8081918190934E
:100270008700809386008091860090918700E091AE
:100280000001F0910101EE0FFF1FEE5FFE4F608154
:1002900071810E946103709389006093880080914E
:1002A000860090918700E0910001F0910101EE0F2E
:1002B000FF1FEE5FFE4F608171810E9461037093AA
:1002C0008B0060938A002FB7F8948091530190912E
:1002D0005401A0915501B09156012FBF8093570151
:1002E00090935801A0935901B0935A010895435A2D
:1002F0005F4F98CF1F920F920FB60F9211242F933A
:100300003F938F939F93AF93BF93809153019091AD
:100310005401A0915501B091560130914C0123E058
:10032000230F2D3758F50196A11DB11D20934C01C7
:100330008093530190935401A0935501B0935601BB
:1003400080914D0190914E01A0914F01B0915001CB
:100350000196A11DB11D80934D0190934E01A09374
:100360004F01B0935001BF91AF919F918F913F91F9
:100370002F910F900FBE0F901F90189526E8230F16
:100380000296A11DB11DD2CF789484B5826084BD40
:1003900084B5816084BD85B5826085BD85B5816089
:1003A00085BD80916E00816080936E001092810007
:1003B00080918100826080938100809181008160C2
:1003C0008093810080918000816080938000809183
:1003D000B10084608093B1008091B000816080930F
:1003E000B00080917A00846080937A0080917A00D6
:1003F000826080937A0080917A00816080937A0095
:1004000080917A00806880937A001092C10061E048
:100410008AE00E94710060E083E10E94710060E068
:1004200081E10E9471002FB7F8948091530190915F
:100430005401A0915501B09156012FBF80935701EF
:1004400090935801A0935901B0935A0180EA809388
:10045000800081E18093810088EE93E09093870093
:10046000809386008091860090918700969587956D
:1004700090938900809388008091860090918700F6
:100480009695879590938B0080938A000E940B012C
:1004900080910001909101018A30910509F44DC0CD
:1004A0008B30910509F44CC0099731F482E691E054
:1004B000909387008093860081E10E94A20086319C
:1004C00093400CF090C080918600909187009695A3
:1004D0008795909389008093880080918600909101
:1004E00087009695879590938B0080938A00109251
:1004F0005201109251018091510190915201863028
:1005000091050CF5880F991FFC01E65CFE4F808178
:10051000918190938700809386006CE271E080E087
:1005200090E00E94D9008091510190915201019672
:100530009093520180935101DECF80E491E0B8CFD7
:100540008AEF90E0B5CF82E390E0909352018093E0
:10055000510109E110E08091860090918700C091DF
:100560005101D0915201C817D90788F564E670E0AF
:1005700080E090E00E94D9008091860090918700F1
:10058000BE010E946103709389006093880080918E
:1005900086009091870060915101709152010E94F4
:1005A000610370938B0060938A0080918600909124
:1005B0008700B8010E94610380915101909152011E
:1005C000680F791F7093520160935101C4CF84E684
:1005D00090E0909387008093860064E873E080E069
:1005E00090E00E94D90006E41FE366E0E62E67E48F
:1005F000F62EC0E0D0E064E670E080E090E00E947B
:10060000D9000E940B018FB7F8944091530150918B
:10061000540160915501709156018FBF809157012F
:1006200090915801A0915901B0915A018054984D70
:10063000A64FBF4F84179507A607B707E0F510939D
:1006400087000093860080918600909187009695A0
:10065000879590938900809388008091860090917F
:1006600087009695879590938B0080938A006AEF18
:1006700070E080E090E00E94D900F0928700E09264
:10068000860080918600909187009695879590933B
:1006900089008093880080918600909187009695CC
:1006A000879590938B0080938A0066E970E080E0E4
:1006B00090E00E94D900209709F49DCF0E9400008D
:1006C0009ACFAA1BBB1B51E107C0AA1FBB1FA617CD
:1006D000B70710F0A61BB70B881F991F5A95A9F7EB
:0E06E00080959095BC01CD010895F894FFCF50
:1006EE00FFFF0200020002000200020002000200F0
:1006FE000200020002000200020002000200A00F2F
:10070E00D0073505E80320039B023B02F401D70115
:10071E00BC01A50190014001C800463F0647B84FF5
:08072E007C59CE5E6A6A727705
:00000001FF
